{
  "_format": "hh-sol-artifact-1",
  "contractName": "Guestbook",
  "sourceName": "contracts/Guestbook.sol",
  "abi": [
    {
      "anonymous": false,
      "inputs": [
        {
          "indexed": true,
          "internalType": "address",
          "name": "writer",
          "type": "address"
        },
        {
          "indexed": false,
          "internalType": "string",
          "name": "message",
          "type": "string"
        },
        {
          "indexed": false,
          "internalType": "uint256",
          "name": "timestamp",
          "type": "uint256"
        }
      ],
      "name": "NewEntry",
      "type": "event"
    },
    {
      "inputs": [
        {
          "internalType": "uint256",
          "name": "",
          "type": "uint256"
        }
      ],
      "name": "entries",
      "outputs": [
        {
          "internalType": "address",
          "name": "writer",
          "type": "address"
        },
        {
          "internalType": "string",
          "name": "message",
          "type": "string"
        },
        {
          "internalType": "uint256",
          "name": "timestamp",
          "type": "uint256"
        }
      ],
      "stateMutability": "view",
      "type": "function"
    },
    {
      "inputs": [],
      "name": "getAllEntries",
      "outputs": [
        {
          "components": [
            {
              "internalType": "address",
              "name": "writer",
              "type": "address"
            },
            {
              "internalType": "string",
              "name": "message",
              "type": "string"
            },
            {
              "internalType": "uint256",
              "name": "timestamp",
              "type": "uint256"
            }
          ],
          "internalType": "struct Guestbook.Entry[]",
          "name": "",
          "type": "tuple[]"
        }
      ],
      "stateMutability": "view",
      "type": "function"
    },
    {
      "inputs": [
        {
          "internalType": "string",
          "name": "_message",
          "type": "string"
        }
      ],
      "name": "writeMessage",
      "outputs": [],
      "stateMutability": "nonpayable",
      "type": "function"
    }
  ],
  "bytecode": "0x6080604052348015600f57600080fd5b50610ca68061001f6000396000f3fe608060405234801561001057600080fd5b50600436106100415760003560e01c80634a0364e814610046578063b30906d414610064578063b588bfad14610096575b600080fd5b61004e6100b2565b60405161005b9190610643565b60405180910390f35b61007e600480360381019061007991906106a5565b610203565b60405161008d9392919061073a565b60405180910390f35b6100b060048036038101906100ab91906108ad565b6102e5565b005b60606000805480602002602001604051908101604052809291908181526020016000905b828210156101fa57838290600052602060002090600302016040518060600160405290816000820160009054906101000a900473ffffffffffffffffffffffffffffffffffffffff1673ffffffffffffffffffffffffffffffffffffffff1673ffffffffffffffffffffffffffffffffffffffff16815260200160018201805461015f90610925565b80601f016020809104026020016040519081016040528092919081815260200182805461018b90610925565b80156101d85780601f106101ad576101008083540402835291602001916101d8565b820191906000526020600020905b8154815290600101906020018083116101bb57829003601f168201915b50505050508152602001600282015481525050815260200190600101906100d6565b50505050905090565b6000818154811061021357600080fd5b90600052602060002090600302016000915090508060000160009054906101000a900473ffffffffffffffffffffffffffffffffffffffff169080600101805461025c90610925565b80601f016020809104026020016040519081016040528092919081815260200182805461028890610925565b80156102d55780601f106102aa576101008083540402835291602001916102d5565b820191906000526020600020905b8154815290600101906020018083116102b857829003601f168201915b5050505050908060020154905083565b6000815111610329576040517f08c379a0000000000000000000000000000000000000000000000000000000008152600401610320906109a2565b60405180910390fd5b600060405180606001604052803373ffffffffffffffffffffffffffffffffffffffff168152602001838152602001428152509050600081908060018154018082558091505060019003906000526020600020906003020160009091909190915060008201518160000160006101000a81548173ffffffffffffffffffffffffffffffffffffffff021916908373ffffffffffffffffffffffffffffffffffffffff16021790555060208201518160010190816103e69190610b6e565b506040820151816002015550503373ffffffffffffffffffffffffffffffffffffffff167f32e3bbfe7e702497a147089913620d95f17cb5aed659e610355b14cb7f8ccfbb834260405161043b929190610c40565b60405180910390a25050565b600081519050919050565b600082825260208201905092915050565b6000819050602082019050919050565b600073ffffffffffffffffffffffffffffffffffffffff82169050919050565b600061049e82610473565b9050919050565b6104ae81610493565b82525050565b600081519050919050565b600082825260208201905092915050565b60005b838110156104ee5780820151818401526020810190506104d3565b60008484015250505050565b6000601f19601f8301169050919050565b6000610516826104b4565b61052081856104bf565b93506105308185602086016104d0565b610539816104fa565b840191505092915050565b6000819050919050565b61055781610544565b82525050565b600060608301600083015161057560008601826104a5565b506020830151848203602086015261058d828261050b565b91505060408301516105a2604086018261054e565b508091505092915050565b60006105b9838361055d565b905092915050565b6000602082019050919050565b60006105d982610447565b6105e38185610452565b9350836020820285016105f585610463565b8060005b85811015610631578484038952815161061285826105ad565b945061061d836105c1565b925060208a019950506001810190506105f9565b50829750879550505050505092915050565b6000602082019050818103600083015261065d81846105ce565b905092915050565b6000604051905090565b600080fd5b600080fd5b61068281610544565b811461068d57600080fd5b50565b60008135905061069f81610679565b92915050565b6000602082840312156106bb576106ba61066f565b5b60006106c984828501610690565b91505092915050565b6106db81610493565b82525050565b600082825260208201905092915050565b60006106fd826104b4565b61070781856106e1565b93506107178185602086016104d0565b610720816104fa565b840191505092915050565b61073481610544565b82525050565b600060608201905061074f60008301866106d2565b818103602083015261076181856106f2565b9050610770604083018461072b565b949350505050565b600080fd5b600080fd5b7f4e487b7100000000000000000000000000000000000000000000000000000000600052604160045260246000fd5b6107ba826104fa565b810181811067ffffffffffffffff821117156107d9576107d8610782565b5b80604052505050565b60006107ec610665565b90506107f882826107b1565b919050565b600067ffffffffffffffff82111561081857610817610782565b5b610821826104fa565b9050602081019050919050565b82818337600083830152505050565b600061085061084b846107fd565b6107e2565b90508281526020810184848401111561086c5761086b61077d565b5b61087784828561082e565b509392505050565b600082601f83011261089457610893610778565b5b81356108a484826020860161083d565b91505092915050565b6000602082840312156108c3576108c261066f565b5b600082013567ffffffffffffffff8111156108e1576108e0610674565b5b6108ed8482850161087f565b91505092915050565b7f4e487b7100000000000000000000000000000000000000000000000000000000600052602260045260246000fd5b6000600282049050600182168061093d57607f821691505b6020821081036109505761094f6108f6565b5b50919050565b7f4e61636872696368742064617266206e69636874206c656572207365696e0000600082015250565b600061098c601e836106e1565b915061099782610956565b602082019050919050565b600060208201905081810360008301526109bb8161097f565b9050919050565b60008190508160005260206000209050919050565b60006020601f8301049050919050565b600082821b905092915050565b600060088302610a247fffffffffffffffffffffffffffffffffffffffffffffffffffffffffffffffff826109e7565b610a2e86836109e7565b95508019841693508086168417925050509392505050565b6000819050919050565b6000610a6b610a66610a6184610544565b610a46565b610544565b9050919050565b6000819050919050565b610a8583610a50565b610a99610a9182610a72565b8484546109f4565b825550505050565b600090565b610aae610aa1565b610ab9818484610a7c565b505050565b5b81811015610add57610ad2600082610aa6565b600181019050610abf565b5050565b601f821115610b2257610af3816109c2565b610afc846109d7565b81016020851015610b0b578190505b610b1f610b17856109d7565b830182610abe565b50505b505050565b600082821c905092915050565b6000610b4560001984600802610b27565b1980831691505092915050565b6000610b5e8383610b34565b9150826002028217905092915050565b610b77826104b4565b67ffffffffffffffff811115610b9057610b8f610782565b5b610b9a8254610925565b610ba5828285610ae1565b600060209050601f831160018114610bd85760008415610bc6578287015190505b610bd08582610b52565b865550610c38565b601f198416610be6866109c2565b60005b82811015610c0e57848901518255600182019150602085019450602081019050610be9565b86831015610c2b5784890151610c27601f891682610b34565b8355505b6001600288020188555050505b505050505050565b60006040820190508181036000830152610c5a81856106f2565b9050610c69602083018461072b565b939250505056fea2646970667358221220c4e90dcc6f855c23c0d700b5fd4f4027891643568e8843364f5c2c927c00e96a64736f6c634300081c0033",
  "linkReferences": {},
  "deployedLinkReferences": {}
}